:1000000012C02AC029C028C027C0CCC025C024C027
:1000100023C022C021C020C01FC01EC01DC01CC0E4
:100020001BC01AC019C011241FBECFEDCDBF10E0F8
:10003000A0E6B0E0EEEEF4E002C005900D92AE3620
:10004000B107D9F710E0AEE6B0E001C01D92AA38C2
:10005000B107E1F788D149C2D3CFBC98C49ABB9805
:10006000C39A0895CF93DF93282F30E0E901CE584B
:10007000DF4F8881D901A059BF4F9C919230C9F0C0
:10008000933028F4992341F09130A9F509C09330B9
:1000900029F1943081F51AC0662369F581E019C011
:1000A0006623F1F4882339F1F901E259FF4F908377
:1000B0000FC0662311F084E00CC08530E0F0F90138
:1000C000E259FF4F81E0808383E003C0662319F487
:1000D00082E08C930FC0882371F002C0662311F078
:1000E0001C9208C0853038F0F901E259FF4F81E0D9
:1000F00080839C931882F901EE58FF4F80818F5FB7
:10010000808390E020593F4FF9018081833009F4CA
:1001100091E0892FDF91CF9108951F9366B3629587
:10012000617080E09FDF182F66B3669566956695CF
:10013000617081E097DF812B1F91089580916F009E
:1001400010926F00089580916E0010926E000895D5
:1001500068E1BFD190937600809176006AE0B9D1D2
:100160009093780080917600B4D1809377000895C1
:100170006CE3AFD190937500809175006AE0A9D1CE
:1001800090937A0080917500A4D1809379000895AE
:1001900085E08EBD8CE49FEF9DBD8CBD89B78068E6
:1001A00089BF08951F920F920FB60F9211242F93BB
:1001B0003F934F935F936F937F938F939F93AF93EF
:1001C000BF93EF93FF938CE49FEF9DBD8CBD809117
:1001D0007C008F5F80937C0084E669D1AFDF882349
:1001E00039F010927400809175008F5FC1DF52C0AA
:1001F000AADF882339F010927400809176008F5F17
:10020000A7DF48C080917C008A3008F445C0809107
:1002100074008F5F8093740080917400817080936C
:100220007B00809174008C33A8F11092740080914F
:1002300075008F5F80937500809175006AE049D1E9
:1002400090937A008091750044D1809379008091D9
:1002500075008C33F8F01092750010927A001092AD
:100260007900809176008F5F809376008091760090
:1002700030D190937800809176002BD180937700D5
:1002800080917600883130F01092760010927800DC
:100290001092770010927C0020917B009091770063
:1002A00080917800990F880F880F880F892B822BF7
:1002B00082BB9091790080917A00880F880F880F17
:1002C000892BAED0FF91EF91BF91AF919F918F910C
:1002D0007F916F915F914F913F912F910F900FBE42
:1002E0000F901F90189581E083BF83EC80BF16BEEE
:1002F00012BE8FEF81BB12BABA9AC29885E686BF4A
:10030000089585E686BF089589EF86BF0895B89A57
:10031000C098B998C19880EC88B982E081B90895F5
:1003200080917D00089580916000882319F08130CC
:1003300099F40BC0459B04C081E080937D0002C00E
:1003400010927D00479AC09807C0C09A47981092B3
:10035000600024E630E005C081E08093600028E87A
:1003600033E1C9010895F89480E886BD81E086BD37
:100370008FEF8ABB87BB81BB0BDFB5DF68D05ED058
:10038000C6DF6BDE789482E064E670E061D083E0E3
:1003900068E873E15DD082E07BD0882319F0BDDE90
:1003A00082E066D083E074D08823A9F3B9DF882384
:1003B00011F4A7DF01C0A8DFB6DFBC0183E0EACFFC
:1003C0006150E62FFF27E7FDF095E80FF91F71E078
:1003D00019C0CA01022E02C0959587950A94E2F7CA
:1003E00080FD02C0C59801C0C59AC69A872F8A951C
:1003F000F1F7C698215030408FEF2F3F380749F76B
:100400006150319767FD06C08081482F50E027E09A
:1004100030E0DFCFC79A81E08A95F1F7C798089559
:10042000DF93CF930F92CDB7DEB78983CE010196CC
:1004300061E0C6DF0F90CF91DF910895C598BD9A16
:10044000C698BE9AC798BF9A80E0EADF08950895DB
:10045000E82FF0E0EE0FFF1FDF01A258BF4F6D93B2
:100460007C93F894EF59FF4F7183608378940895DB
:10047000E82FF894F0E0EE0FFF1FDF01A258BF4F06
:100480008D919C91EF59FF4F9183808378940895CB
:1004900020E0E82FF0E0EE0FFF1FEF59FF4F8081C3
:1004A0009181181619060CF021E0822F0895E1E6DB
:1004B000F0E090E0208131811216130624F4281B0D
:1004C000390B31832083329620E0ED36F20791F725
:1004D0000895991B79E004C0991F961708F0961BA0
:1004E000881F7A95C9F780950895F894FFCF01FF8A
:1004F000FFFFFFFFFFFFFFFFFFFFFF00FFFFFFFF0B
:10050000FFFFFFFFFFFFFFFFFFFFFFFFFFFFFFFFFB
:10051000FFFFFFFFFFFFFFFFFFFFFFFFFFFFFFFFEB
:10052000FFFFFFFFFFFFFFFFFFFFFFFFFFFFFFFFDB
:10053000FFFFFFFFFFFFFFFFFFFFFFFFFFFFFFFFCB
:00000001FF
